:020000041000EA
:1000000000B5324B212058609868022188439860DF
:10001000D860186158612E4B002199600221596106
:100020000121F02299502B49196001219960352056
:1000300000F044F80222904214D00621196600F024
:1000400034F8196E01211966002018661A6600F04E
:100050002CF8196E196E196E052000F02FF8012189
:100060000842F9D1002199601B49196000215960AB
:100070001A491B48016001219960EB211966A021F2
:10008000196600F012F800219960164914480160C1
:100090000121996001BC002800D000471248134993
:1000A000086003C880F30888084703B5996A0420EC
:1000B0000142FBD001200142F8D103BD02B5186610
:1000C0001866FFF7F2FF186E186E02BD00000240BE
:1000D000000000180000070000035F00212200005C
:1000E000F4000018222000A00001001008ED00E03C
:1000F00000000000000000000000000074B24E7A12
:1001000000200420F7010010CB010010CD010010E9
:10011000C9010010C9010010C9010010C901001077
:10012000C9010010C9010010C9010010CF01001061
:10013000C9010010C9010010D1010010D301001045
:10014000C1010010C1010010C1010010C101001067
:10015000C1010010C1010010C1010010C101001057
:10016000C1010010C1010010C1010010C101001047
:10017000C1010010C1010010C1010010C101001037
:10018000C1010010C1010010C1010010C101001027
:10019000C1010010C1010010C1010010C101001017
:1001A000C1010010C1010010C1010010C101001007
:1001B000C1010010C1010010C1010010C1010010F7
:1001C000EFF30580103800BE00BE00BE00BE00BECA
:1001D00000BE00BEF2EB8871980D0110B80D011041
:1001E0003802001090A31AE71E481F49086006C88D
:1001F00081F3088810471D480068002801D019487D
:10020000F3E70DA40ECC002902D000F012F8F9E7B4
:100210001749184A002000E001C19142FCD116495B
:100220008847164988471649884700BEFDE701C937
:1002300001C29A42FBD37047B80D0110C0000020E4
:100240006018002058250110000004200000042040
:1002500058250110001004200010042000000000A8
:10026000704700000000000008ED00E0000000D032
:1002700060180020482B0020214800103D06001087
:10028000E1470010F8B5C0460448054B10B583425D
:1002900003D0044B002B00D0984710BD60180020FD
:1002A000601800200000000006480749091A8B105A
:1002B000C90FC91810B5491003D0044B002B00D04A
:1002C000984710BD60180020601800200000000052
:1002D00010B5074C2378002B09D1FFF7D5FF054B4C
:1002E000002B02D0044800E000BF0123237010BDA2
:1002F000F01B00200000000018ED0010054B10B5A9
:10030000002B03D00449054800E000BFFFF7CCFFF5
:1003100010BDC04600000000F41B002018ED0010C6
:10032000D02380221B06D200002801D05A617047DA
:100330009A61FCE7D02380221B065200002801D0DE
:100340005A6170479A61FCE7D02380221B06920015
:10035000002801D05A6170479A61FCE710B5034A42
:100360000349044804F0F4FC10BDC04618ED001029
:1003700020ED001030ED001070B5084C2168002908
:100380000BD0074D0834226828000C3404F0E0FC40
:100390002300083B19680029F5D170BD60100020CA
:1003A0005CED001010B5012000F0BEFA10BDC04693
:1003B00010B5002000F0B8FA10BDC04610B50220FC
:1003C00000F0B2FA10BDC04610B50A0001000248A4
:1003D0000EF04EFC10BDC04600C0034010B5020038
:1003E0000B00024800210EF00BFC10BD00C00340C2
:1003F00010B501F043F910BD002300B583B00C49DE
:1004000001AA019308F00AF9002101280BD1FC2070
:10041000019BC000D90C5A09C90202401B061143B6
:10042000DB0E194389B2034807F0EAFC03B000BDB4
:1004300068ED0010D02A0020002300B587B0039398
:100440000493059305AB00930E4904AB03AA08F08F
:10045000E5F8002303280BD1FC20039AC000D30C3D
:100460005109DB02014012060B43D20E13439BB22B
:10047000059A0499044892B289B207F05DFC07B06E
:1004800000BDC0466CED0010D02A0020F0B5D1B000
:1004900007F052FF02F030F800222B4B01F0B5FFBD
:1004A00002F0AAF8061C08F075F8071C08F040F8DE
:1004B000264B274C029302F0D1FC264D22000090DF
:1004C00001912B00642105A804F0E6F8224B381CAA
:1004D000029302F0C3FC214D2200009001912B00F9
:1004E00064211EA804F0D8F81D4B301C029302F0C2
:1004F000B5FC00261B4D009001912B0022006421C9
:1005000037A804F0C9F8184F184C194D200005AB56
:100510003C22642102970196009507F017FE200007
:100520001EAB7822642102970196009507F00EFE1B
:10053000B4226421200002970196009537AB07F0A2
:1005400005FE51B0F0BDC0460000503F94ED0010D4
:1005500088ED001078ED0010A4ED001098ED00106B
:10056000B4ED0010A8ED0010E0FF0000D02A00203C
:100570004CF70010002300B583B0084901AA01938D
:1005800008F04CF80198002803D000F0D3F903B02C
:1005900000BD034804F054FBF9E7C046B8ED001075
:1005A000BCED0010F0B585B006000F0001F02AF98F
:1005B000002502000B000B4C0B48A4185D41802362
:1005C0001B069D4202D30124084D644200233200E1
:1005D000009376213B000294039507F027FA05B0BB
:1005E000F0BDC046A086010098110020FFFFFF7FEC
:1005F000F0B585B006000F0001F004F900250200F7
:100600000B000B4C0B48A4185D4180231B069D4238
:1006100002D30124084D6442002332000093762166
:100620003B000294039507F025FA05B0F0BDC046E3
:10063000A086010098110020FFFFFF7F70B5D02435
:100640008026802586B03149314807F0C7F903215B
:100650000E2000F079F903210F2000F075F92D49E3
:100660002D4807F0A9FD04F04FFA00F06BF82B4974
:100670002B4806F06BFF0121042000F065F90121F1
:10068000072000F061F901210620240600F05CF942
:10069000F6000A2000F072F96D000820666200F092
:1006A0006DF90920656200F069F980239B0063629F
:1006B0006661A561A3611B4B1B4C00931B4B6946F4
:1006C00001931B4B200002931A4B03931A4B049384
:1006D0001A4B059307F0A8FA0121200007F096FCB9
:1006E0000021200007F08CFB9620400000F0C6FFA0
:1006F000134800F05BF800F0C7F800F029F8002874
:1007000001D000F06DF800F0D5F8F6E7A086010002
:1007100098110020A5050010F1050010A0ACB90348
:1007200000C00340C9030010D02A0020DD030010E0
:10073000210300103503001049030010F1030010DD
:10074000601000200022014B1A60704768260020CC
:1007500010B5002004F0DCF90400831C0DD004F077
:1007600023FA0D2C0BD00A2C09D00D4A13687E2BCE
:1007700012DC0C49CC540133136000200BE0094813
:1007800000220400064B19681A60425421000648F2
:1007900004F0DEFA200010BD002300201360FAE709
:1007A00068260020E825002064EF001010B50A4BF1
:1007B0000A4C186023685A00D21892008158002908
:1007C00009D00C3201338018026819000C30013353
:1007D000002AF9D1216010BDD42400206C2600200D
:1007E000F8B54546DE4657464E46E0B5051E34D0C0
:1007F000202107F067FF002839D000230370431C35
:100800009B465A4629001B4804F0A2FA1A4B1E6860
:100810009946002E27DD00239A46184B002498465F
:100820004246630017681B199B00FF1828003968AF
:1008300007F0AAFF00280AD17B68584698474B4624
:100840001E680134B44208DA01239A46E8E701340D
:10085000B442E5DB5346002B05D0F0BCBB46B246A4
:10086000A946A046F8BD064804F072FAF5E7054B24
:100870009B46C6E77CEF00106C260020D4240020A5
:1008800098EF001064ED0010002200200021074BBB
:1008900010B51A70064B18605960193000F06EF8E8
:1008A000D02380221B0692045A6210BD432B0020E5
:1008B000E819002070B5194B1B78012B26D0022BAC
:1008C00007D0002B04D1D02380221B0692049A610A
:1008D00070BD00F097FF124C63688B4203D3F7D1D1
:1008E00023688342F4D200F08DFF0E4B1D68002375
:1008F0006A0812184B4122606360D02380221B06D5
:1009000059689204114207D15A61E1E7D02380224D
:100910001B0692045A61DBE79A61D9E7432B00205A
:10092000E8190020D8100020014B18707047C0460D
:10093000432B002043011B1A9B00024A1818C000D9
:1009400010607047D8100020094A83009A1810B52B
:1009500014684022544080322240064CC000A44615
:1009600063441A60044B9C466044416010BDC0461D
:1009700004C0014004D00140004001400123D022C6
:100980008340120693629361094A83009A181168A2
:100990004022514080320A400649C0008C466344E0
:1009A0001A60054B9C460523604443607047C0466F
:1009B00004C0014004D00140004001408023DB0519
:1009C0001868000F7047C0460FB400B5084883B0E0
:1009D00004F036F9049B002B07D005A918000191FB
:1009E00003F09EFE034804F02BF9012003F0B0FE53
:1009F000CCEF001090F1001070B5EFF3108C72B6D0
:100A00000D4D2B68002BFCD0BFF35F8F0724CB0864
:100A1000C618C05C01230C40A3401C0004400342E4
:100A200007D118433070BFF35F8F2C608CF31088B0
:100A300070BD1000FFF7C8FF2C0100D0F8B5474685
:100A4000CE46884680B5EFF3108C72B6214D2C68E7
:100A5000002CFCD0BFF35F8F9A422CD8D408072714
:100A6000055D061901241740BC402C421FD0072108
:100A70000127894609E0D408055D06194C4639006E
:100A80001440A1400C00294211D001329342F2D20D
:100A900001204042BFF35F8F00220E4B1A608CF39F
:100AA000108800280FDBC0BCB946B046F8BD25430E
:100AB00010003570EEE7BFF35F8F00232B608CF3DF
:100AC0001088012040424346002BECD00898FFF7E5
:100AD0007BFFC0462C0100D0044A1078431CDBB2D7
:100AE000172B00D9102313707047C046DC1000206C
:100AF00010B5064B064C82B00100009318221F234C
:100B00002000FFF79BFF02B010BDC046DCEF0010D5
:100B1000E02500200021044B044ABFF35F8F02C38D
:100B20009342FAD17047C046000100D0800100D046
:100B3000054B064A1360064A136053609360D36006
:100B400013615361936170478080808000E400E00E
:100B500004E400E01F2318401E3B8340002905D019
:100B6000C021044A49005350136070478022014954
:100B70008B50FAE700E100E001228240034B1B6842
:100B800013405A1E9341D8B27047C04600E100E0BE
:100B900001238340014A13607047C04600E200E031
:100BA000064B10309B688000C358054A00209B1AF2
:100BB0002F229A424041C0B27047C04600ED00E08B
:100BC000E010002070B50D00EFF3108672B60F4AEA
:100BD0001368002BFCD0BFF35F8F0D4B10309B6868
:100BE00084001B590B4A934203D09D4201D001F06F
:100BF0004FF8074B9B681D51BFF35F8FBFF35F8FAB
:100C00000022024B1A6086F3108870BD240100D0C8
:100C100000ED00E0C1010010F0B557464E46DE463B
:100C20004546E0B585B0060000911700EFF3108B44
:100C300072B66A4A1368002BFCD0BFF35F8F0025A1
:100C4000674B5D579A46002D00DAA9E06B00654CB2
:100C500001935B199B009846A146C1444B465246FE
:100C60009B7910361370604BB6009B6899590B1B2B
:100C70002F2B33D95D4B994200D0ACE0019B42460B
:100C80009C465B4B6544AD0063535A4B0232A2183D
:100C9000043B9B1A1B05584A5B0D651913436B8077
:100CA000564B0121AB80FF23AB71009BEF71AB6012
:100CB0004B460B4319004C4B9B689951BFF35F8F18
:100CC000BFF35F8F0022454B1A608BF3108805B08D
:100CD000F0BCBB46B246A946A046F0BD01200A00C2
:100CE0008243D3798C46BB4231D8454613004449F0
:100CF0001B1B5B415943090D3D4B63533D4B023573
:100D00006519043B5B1B1B053B4D5B0D2B43AA4642
:100D10004D466B800425AC465546E044131F4444C1
:100D20001B1B1B055B0D1D434B46997100999D8054
:100D300099604946DF71334B01431360BBE75800AC
:100D4000C01880002018C179B9422FD902000623AB
:100D5000D356002BF3DA02932B4B61460393131DFA
:100D60009A4604235B429C46E14450464B461B1A7C
:100D70001B055B0D9C46204B95719846634640468B
:100D800003439380019B5A199200039BA418A380EC
:100D9000029B1C4AA371009B2260E771A3608AE753
:100DA00000F076FF002553465D574FE79088029389
:100DB0004005131D9A46031561469C464046D4449F
:100DC000634604302018181AE0230005400D1B026A
:100DD00018430390C5E700F05BFF4FE7240100D004
:100DE000412B0020E010002000ED00E0C1010010C8
:100DF00000A1FFFF1011002000E0FFFF01BDFFFF79
:100E0000AAAA00000148804701BD000070B5012476
:100E10000443EFF30581EFF3108C72B6214A136897
:100E2000002BFCD0BFF35F8F1F4B05001F4AED1A4C
:100E30006D416A43120D1E4D8900AE6852B276585C
:100E4000A6421CD00621595691421CD01221595657
:100E5000914222D01E215956914220D02A21595622
:100E60000324914210D0134B19781A708171BFF38B
:100E70005F8F00220B4B1A608CF3108870BDAB683B
:100E80000D4C5C50EFE700246100091989005B18E4
:100E9000FF21997109499980E5E70124F4E70224CB
:100EA000F2E7C046240100D0E0100020AAAA00000A
:100EB00000ED00E0412B0020C101001001BDFFFF4B
:100EC00010B5084B084C82B00100009300220523A6
:100ED0002000FFF7B3FD002801DB1F23181A02B022
:100EE00010BDC046F8EF0010462B0020024B9C4678
:100EF00061448900016070474000003470B5114CB6
:100F0000114DAC420FD2FF262368002B0CD0FFF707
:100F1000E3FD01002000FFF7E9FFA680BFF35F8F2C
:100F20000834AC42F0D370BDFFF7D6FD01002000BD
:100F3000FFF7DCFF2671BFF35F8F0834AC42E3D3C9
:100F4000F1E7C046581800206018002010B50400D2
:100F5000FFF7C2FD01002000FFF7C8FFFF23237148
:100F6000BFF35F8F10BDC04610B504000120FFF72E
:100F7000BFFD034BC3189B002360BFF35F8F10BD01
:100F800040000034034B9C46614489000160BFF37C
:100F90005F8F7047400000340A4B1968EFF31080F0
:100FA00072B60A68002AFCD0BFF35F8F1B68BFF3DC
:100FB0005F8F00221A6080F3108840BF002000215C
:100FC0007047C046202B0020F0B5DE4657464E46FF
:100FD0004546E0B583B0EFF3058203231340B54ADD
:100FE000990052580091904601229A409346B24B84
:100FF0001A60B24B01935B46B148436343460822F3
:101000009B5E9946002B3ADA43469B881BB2002B25
:1010100000DB9DE043469B79002B00D0E1E0434696
:1010200008241C5F002C20DB43465A6963001B190F
:10103000DB00D3189D68DC686B1C00D103E1A0487D
:10104000009984466144826A0B69AE1A9B1A9E42DB
:1010500013D35A46036A1A420FD0994800F0CAFBCC
:101060008C4202DCC7D18542C5D940BF03B0F0BC79
:10107000BB46B246A946A046F0BD0D61EDE742462B
:1010800052695B0092464B44DB009A4453469E688B
:10109000DF6800F0AFFB8F42B6DC00D1F8E0002F34
:1010A00000DAD9E05246534654691B69019A9342CB
:1010B00000D1CCE0414652460820085E5288000428
:1010C00021001043984704000D0023002B4300D15A
:1010D000C2E0002D00DBDFE030003900001BA94139
:1010E00053469860D96000229A5E002A00DA8BE7A6
:1010F00043465D6953009C18E4002C19A768E46816
:101100008C4200DD80E702D1874200D97CE7464669
:10111000328108360DE08C4200D1C6E01E0000236B
:10112000F25E002A0ADB53009C18E4002C19A76821
:10113000E4689B18DB00EB188C42ECDD53461A8008
:101140004B46338043469B881BB2002B00DA61E795
:1011500043461A69EFF3108172B61368002BFCD076
:10116000BFF35F8F43469E88012342465B429380D4
:1011700036B21369BFF35F8F00221A6081F31088C3
:10118000002E00DA46E743465D69083342469C4636
:101190007700BF19FF00EF19BB6860469846082327
:1011A000D15E9246FC68002907DA0EE0A24246D0E2
:1011B00018000023C15E002906DB4B005B18DB0032
:1011C000EB18DA68A242F1DD524606800023FE5E8B
:1011D0003980002EDCDA904643469B79002B00D103
:1011E0001DE7002342469371434646460821595E57
:1011F00008364B1C00D138E747468946556902E05E
:1012000006004B1C18D04B005B18DB00E8180A00E6
:101210008C46E95E43881BB2002BF1DA01235B4266
:10122000DC178360C4604A4503D031803B8903806A
:101230003A81E1464B1CE6D1B8464C46F2E69A6844
:101240004245B5D9C0E7631C00D0F8E605E72000A9
:1012500023699847002825D1534642461B881381AD
:101260001269EFF3108372B611680029FCD0BFF346
:101270005F8F4246514652880A8042464946518015
:101280001269BFF35F8F0021116083F31088BBE602
:10129000864200D803E7B7E6094800F0ABFA001928
:1012A00069411DE7656824680FE7874200D835E784
:1012B00044E7C046042B00203C700540C90F0010D5
:1012C0000040054070B52E4C2569002D04D00A2140
:1012D0002C48FFF70BFE70BD2B4E0321300000F0B1
:1012E0007FFAE660FFF7F8FB284B03229C46D023E9
:1012F00022701B061B6801216370254B6044A360AC
:101300000F23800020610220638063694942A1802D
:1013100019800231198647311D83585218315A52AB
:1013200075325C39995218320131995218320131B3
:101330009952183201319952083518329D520231B2
:10134000183299521832013199521832013199529A
:101350001832013199521832013199521832013143
:1013600099520C4B0C49DC6001303562FFF72AFCC6
:1013700001210320FFF7EEFB084B1D60A7E7C046E5
:1013800028110020202B00200040054040000034A0
:10139000FFFF1000042B0020C90F0010386005402B
:1013A0000048704728110020F8B51F0008AB1B78D3
:1013B00004001600002B08D100F024FA32003B0094
:1013C000121A8B41002B00DA53E02269EFF31080F0
:1013D00072B61368002BFCD0BFF35F8F0223E15E6F
:1013E00063694A005218D2009B18002937DB1A881B
:1013F00062802269BFF35F8F0025156080F310883B
:10140000069A9E60DF601A61079A5A615A88013213
:101410005204520C101C002A1FD082B258800804BB
:1014200010432669EFF3108772B63268002AFCD0A9
:10143000BFF35F8FA2881A80A1802369BFF35F8FFB
:1014400000221A6087F310880B4923788C460132FA
:101450009A40E36863441A60F8BD0120DDE7236920
:10146000BFF35F8F00221A6080F310880120404292
:10147000F2E70020F0E7C0463C20000070B5010014
:101480000469EFF3108C72B620680028FCD0BFF31B
:101490005F8F02200D5E4C6968004019C00024185F
:1014A000002D37DB208848800869BFF35F8F002656
:1014B00006608CF31088E360638804980133206130
:1014C0005B0405985B0CA26060611A1C002B1FD0A6
:1014D00093B22804628018430A69EFF3108C72B645
:1014E0001368002BFCD0BFF35F8F8B8823808D8027
:1014F0000B69BFF35F8F00221A608CF310880B78A2
:1015000001329A40CB6808498C4663441A6070BD2A
:101510000122DDE70B69BFF35F8F00221A608CF3B5
:10152000108801204042F2E73C20000010B54389BA
:101530000A1493421ADD53009B184269DB00D3184A
:101540000469EFF3108C72B62268002AFCD0BFF356
:101550005F8F5A88090494B2090C8A4208D0036943
:10156000BFF35F8F00221A608CF31088002010BD3B
:101570008022120214435C80012302698371BFF34D
:101580005F8F002111608CF31088044902788C462B
:101590009340C268012062441360E8E73C200000E9
:1015A00040787047F0B504000D0006267642F71724
:1015B000C64636196F4100B582B08F4214D811D09B
:1015C00000F020F932003B00121A8B41002B17DC8F
:1015D000002B47D02000290000F052F902B080BC57
:1015E000B846F0BD8642EBD90022002316001F004A
:1015F00000F008F932003B00121A8B41002BE7DDA6
:1016000000F000F932003B00121A8B41002B0ADB7C
:1016100000230193154B3200009315483B00FFF760
:101620002DFF0028D6DB00239C46B046114A124EFF
:10163000736A9F4204D8B16A8845CBD99F42C9D109
:101640001168EFF3108072B60B68002BFCD0BFF36B
:101650005F8F1368BFF35F8F6146196080F3108856
:1016600020BFE5E7002AB5D0CAE7C046990F0010B1
:1016700028110020202B00200040054070B50600F6
:1016800000F0C0F8FA2204000D0000233000002111
:10169000920001F041FB8023001969411B06994229
:1016A00002D3012002494042FFF77CFF70BDC046D3
:1016B000FFFFFF7FF0B5D6464F464646C0B5040053
:1016C0000D0082B0EFF305878946002F0ED0344914
:1016D00000204B6AAB4203D38A6A0130A24226D370
:1016E00002B0E0BCBA46B146A846F0BD2D4B9846C4
:1016F000DB689A46434650461E7800F07BF80B00A4
:10170000514602000436B600715820008E1A290096
:10171000801A99418F4211DC0ED020BF204A002050
:10172000536A4B45DCD3926A0130A242D8D25B1B8C
:101730005A1E9341D8B2D3E78642EED900F062F840
:1017400022002B00121A8B41002B1ADB002301937D
:10175000154B2200009340462B00FFF78FFE011E21
:101760000FDD0F4B5A6A4A4517D39B6AA34212D327
:101770004046FFF7DBFE0A4A0020536A4B45AFD3D1
:10178000D1E7074A0020536A4B45A9D3926A01204A
:10179000A242A5D2CBE74A45EAD120BFE8E7C0463E
:1017A0000040054028110020990F0010084A4368A6
:1017B000516A10B5046800208B4203D8926A013048
:1017C000A24200D310BD5B1A5A1E9341D8B2F9E76A
:1017D000004005400260436000487047AD170010AC
:1017E00010B5024A0248FFF707F910BD14F00010C7
:1017F000E42500200300416A0A00986A596A8A4277
:10180000FAD17047034B596A0A00986A596A9142A3
:10181000FAD170470040054070B504000D00174A2A
:10182000536A1900966A536A8B42FAD13000190044
:1018300024184D41AB4216D813D0104A2B00526ADF
:10184000954203D90D494A6A9A42FCD39A4207D17C
:101850000A4A02E0516A994202D1916AA142F9D33F
:1018600070BDA642E9D9054B5B6A1C005A1CEFD03B
:10187000012301246442E5175B42E3E70040054091
:10188000064A536A9942FCD807D1044B02E05A6ACF
:10189000914202D19A6A8242F9D3704700400540D2
:1018A000F8B5DE464E4657464546E0B58B46050040
:1018B0000A991800160000F03DFB0A9B6C001F02FD
:1018C000324B64199C46A4006444636881469F427D
:1018D00000D967602B1FDBB29846012B30D9C0239B
:1018E00080229B01E31812011A60294BAD0059595F
:1018F0009A4600291BD17301E026226853401E40FE
:10190000802342465B01E3181E60012A30D9802300
:1019100080229B01E31812011A6053464A46676011
:101920005A51F0BCBB46B246A946A046F8BD58691C
:1019300000F000FB013043001B18033BFDD2DAE747
:101940005B46012BCBD1C02303229B01E3181A6015
:10195000023AA3681A42FCD07301E0262268AD0067
:1019600053401E4080230A4A5B019246E3181E60E2
:101970005A462168514003220A401A6001225B4600
:101980009A40A3681A42FCD0C1E7C04600800040DC
:1019900070260020F0B546464F46D646C0B51F001B
:1019A000344B44009C462418A40064446368884671
:1019B0001600FF2B02D880235B006360031FDBB29D
:1019C0009A46012B30D9C02380229B01E3181201D3
:1019D0001A60294B85005959994600291BD173017A
:1019E000E026226853401E40802352465B01E318E4
:1019F0001E60012A30D9802380229B01E318120146
:101A00001A6080235B0063604B465F51E0BCBA46BE
:101A1000B146A846F0BD586900F08CFA0130430089
:101A20001B18033BFDD2DAE74346012BCBD1C02381
:101A300003229B01E3181A60023AA3681A42FCD001
:101A40007301E0262268850053401E4080230A4A25
:101A50005B019146E3181E60424621685140032213
:101A60000A401A60012342469340A2681342FCD008
:101A7000C1E7C0460080004070260020014B800076
:101A8000C058704770260020F8B5040021481E0099
:101A900017000D0000F04EFA0100380000F04AFA7D
:101AA000069B36041B031E432368002B20DB1A4BC6
:101AB0001A49E3185A1E93418022920194465B42D0
:101AC0001B0B174A1B0363441360164A13601F0065
:101AD0000A689743FBD1144B2560E2182123A060CC
:101AE00013602368002BFCDA0823E6601360F8BD5E
:101AF0003F2322681340AB42D9D1A3681B051B0DBD
:101B00008342D4D1EE22E368D2021340B342CED155
:101B1000EDE7C046001BB7000040FDBF08C0004015
:101B200000E0004000F000400430000010B58024C8
:101B30001C4BE4051C6000281AD001231A4C1843E2
:101B40001A4BDC611A4C44401C6259629862802135
:101B5000144BC9051960174817490860E021C904EA
:101B60001960002A07D18022144B12061A6010BD9A
:101B70000E4BD861EBE753019B1A9B009A18802308
:101B800012015B049A4209D213000D490B60074B06
:101B90005A608022094BD2051A60E8E7094B1A0007
:101BA000F3E7C04600B00540D3C007B00080054051
:101BB0002D3FF84FFCFF01000820014000A0054028
:101BC000F42A0020FFFFFF008023024A9B000B4302
:101BD000D362704700800540142310B501001888B7
:101BE00004331B88984710BD162310B501001888D0
:101BF00002331B88984710BDF8B54746CE4680B5DE
:101C00000F1E19D014239946043304000025012621
:101C100098464B461888434621681B88984701C45C
:101C2000431E9841013540420640AF42F1D1300099
:101C3000C0BCB946B046F8BD0126F8E7142370B51C
:101C40000400188804331B880D00054998470300D9
:101C50000020002C01DB0130A04029009847C0463D
:101C600055420000AA23064A1B0113608D235B0026
:101C7000D3600449044B19605368002BFCDA7047A9
:101C80000040024000B0FA00006002407047C046C9
:101C900010B50148FEF798FE38F0001070B5074DFA
:101CA000074EB54209D20024013E761BB60808CD86
:101CB000984723000134B342F9D170BDD0EC001035
:101CC0000CED0010054B064A06491A60064A074B00
:101CD0001A6010000B689843FBD1704700E0004089
:101CE000BFCDFBFE08C00040FE7F3C0000F000407E
:101CF000044BDB6C002B03D18022034BD2021A6011
:101D00007047C046000011504C201150044A054B4A
:101D10001A60054A1368DB018033FBD17047C04667
:101D2000FFFFFF0100F0004008C000404022034BCD
:101D30009A675A671A67DA667047C04600F0014032
:101D400010B5FEF7E7FE10BDF8B52749274C284D22
:101D5000641AA6103200302E00D9302228009200DA
:101D600001F0F4F8BC2C3BD830202F232C19640749
:101D7000204A801BE40F9B1B052B16D93700002C33
:101D800002D0B300771CEA50001B33199B004108B6
:101D9000EB18C900C9181A605A6008339942FAD181
:101DA000012303421CD09843C619B300EA50731CA8
:101DB0002F2E15D09B00EA50B31C2E2E10D09B0066
:101DC000EA50F31C2D2E0BD09B00EA50331D2C2E15
:101DD00006D09B00EA50731D2B2E01D09B00EA50C9
:101DE000054B9D60F8BDC04600010010C001001009
:101DF00000000020C101001000ED00E0002310B53C
:101E0000294C82B0A367FFF72DFF0122274B1A60F0
:101E1000636C012BFCD10322254B1A60224A936B81
:101E2000012BFCD1013300930121224A22480433C3
:101E3000FFF72AFE052301210093204A2048FFF7DF
:101E400023FE0022022104201E4BFFF7A3FD0022E7
:101E5000012105201C4BFFF79DFD002200210720DA
:101E60001A4BFFF797FD002200210820174BFFF7C0
:101E700091FD8023DB000093002200210920134BF9
:101E8000FFF70EFD0022104B00210620FFF782FD18
:101E90000420FFF7F3FD0E4900F04CF8010000208C
:101EA000FFF792FE02B010BD008000403CB0004041
:101EB00030B00040002F685900800240008C8647F7
:101EC00000C00240001BB70040597307006CDC02E1
:101ED00040420F0001480421014B184740110020E7
:101EE000F91B0010124A936F9B0815D29066D166B9
:101EF000002905D0FFE7FFE7FFE7516F106F70473C
:101F000004B580210906C2175140002800D0C843FB
:101F10000CF096FE002104BDF0B5146E556E576F9F
:101F2000166FFFF7E3FF1466556657671667F0BD37
:101F3000000000D0114A936F9B0813D210665166BF
:101F4000002905D0FFE7FFE7FFE7516F106F7047EB
:101F500004B5002801D00020C0430CF071FE002120
:101F600004BDC046F0B5146E556E576F166FFFF77F
:101F7000E5FF1466556657671667F0BD000000D090
:101F800094464A4A926F9208624601D228E0C046BF
:101F9000F0B5464E346E756E776F366F00F020F8F0
:101FA0009446424A14665566576716676246F0BD06
:101FB00094463E4A926F9208624601D254E0C0466F
:101FC000F0B53A4E346E756E776F366F00F04CF8A0
:101FD0009446364A14665566576716676246F0BDE2
:101FE000002B24DB11D000293EDA00B5C943404262
:101FF00000D1013100F038F8C943404200D101312D
:10200000DB43524200D1013300BD002AEBD100284E
:1020100001D1002905D00020C90FC90701D1C04353
:10202000410800B50CF0FCFD0022002300BD00B506
:1020300000290ADBDB43524200D1013300F014F8DF
:10204000C943404200D1013100BDC943404200D1E3
:102050000131DB43524200D1013300F005F8DB438C
:10206000524200D1013300BD002923D1002B18D1E9
:10207000002A0CD0BC460D4F38667A66002100233A
:10208000FFE7FFE7FFE77A6F386F67467047002882
:1020900001D00748010000B50CF0C2FD002200236A
:1020A00000BD02000B00002000217047000000D09E
:1020B000FFFFFFFF002B00D0BFE0130C28D1002A48
:1020C000E7D080B4114F39667A66FFE7FFE730B496
:1020D000040C7B6F396F1B0423433B667A66FFE772
:1020E000FFE7FFE7C04684B27B6F3D6F1B042343CD
:1020F0003B667A66FFE7FFE7C04600232C042D0C01
:102100007A6F386F00196941B0BC7047000000D089
:10211000F0B594460025140E01D112020835140FB3
:1021200001D112010435940F01D192000235D40F70
:1021300001D152000135D40B0134254F7C66254C6A
:102140003C660E0C93B2FFE7FFE7FFE73C6F664388
:10215000360C7703BE467343DF0B5B04C01AB941EC
:10216000130C7343DB18C91ACE086643360CB64409
:1021700093B273431F0F1B01C01AB941130C734371
:102180001F0B1B05C01AB941860D8F023E436643E3
:10219000360C092D24DB520A7243801A7703460A53
:1021A0006643360C16235B1BDE40DF40BF196446D6
:1021B0006643821B7046043506330100D940A840AF
:1021C000C01900D30131A24206D20023F0BD0000A5
:1021D000000000D0FFFFFFFF121B0130F3D3F1E737
:1021E00009277F1BFE406446A2B27243801A00D2C8
:1021F0000139220C7243130C1204821A99410B000C
:102200007046043513370100F940A840801900D307
:102210000131002B02D1A2420AD2F0BD013000D31D
:102220000131121BFAD2013BF8D1A24200D2F0BD1B
:10223000013000D30131121BF7E7F0B51C0C00D0C0
:1022400080E00CB400251C0A04D11B02160E334397
:10225000120208351C0B04D11B01160F3343120167
:1022600004359C0B04D19B00960F3343920002353A
:10227000DC0B02D192185B4101351C0097186441B8
:102280000134464F7C66464C3C660E0CFFE7FFE788
:10229000FFE7C0463C6F6643360C7703BE4697B2F5
:1022A0007743C01B00D20139C01B00D201399FB255
:1022B0007743C91BC91B170C77437E04FF0B801B98
:1022C000B941CE086643360C0C2D33DBB644120BF5
:1022D0001F053A431B0B97B27743C01B00D201394D
:1022E0009FB27743C91B170C77433E043F0C801BFA
:1022F000B941860D8F023E43664329277F1BFE406E
:102300000C3D7746AF40BF1930BCA2B2ABB27243AE
:102310007343801A9941220C7243130C1204801AE1
:10232000994102000B000137001BA941F9D2781E28
:102330000021F0BD0C277F1BFE4077467F0BAF408E
:10234000FF19E0E700245D1C07D0144F7D66396655
:10235000FFE7FFE7FFE7FFE73C6F95B29EB26543FB
:102360006643401BB141150C1E0C654366433604A1
:102370002F0C3E432D04401BB141994204D2020070
:102380000B0020000021F0BD01D19042F7D3801A4C
:10239000994101349942F2D3F6E70000000000D0E1
:1023A000FFFFFFFF48404140484018B41B4B5B68AB
:1023B000FC46019308BD04DFE726001018B4174B54
:1023C0001B68FC46019308BD00DFF126001094460F
:1023D000134A926F920809D2624618B40F4BDB6819
:1023E000FC46019308BD0CDFA92900100C4AF0B58A
:1023F000146E556E576F166F6246FFF7EEFF084A70
:102400001466556657671667F0BD18B4034B9B6892
:10241000FC46019308BD08DF4D280010F01900208C
:10242000000000D0FFB550404240504059404B4062
:10243000594000E0FFB5154F4C00640D03D0BC427D
:1024400004D10C0314D80020090D09055C00640DAB
:1024500003D0BC4204D11C030AD800221B0D1B056B
:1024600001264B4009D44B4003D58B4200D1824218
:10247000FFBD9942FCD19042FFBD0B43DB180343E3
:102480001343F5D0C9434918FFBD0000FF07000002
:1024900000B5FFF7CFFF01D0002000BD012000BD37
:1024A00000B5FFF7C7FF804100BDC04600B5FFF78C
:1024B000C1FF01D9002000BD012000BD00B5FFF71C
:1024C000B1FF01D9002000BD012000BD00B5FFF71C
:1024D000A9FF804100BD012040054A00121804D820
:1024E0005A00121801D800207047012070470000E0
:1024F0000021002805D17047C1174840401AFAD082
:10250000C90713B5064B1B6898470CBC441CA24076
:102510001005120B0349091B09051943114310BD8E
:102520001C2B00201F04000010B54C00620D8023FE
:10253000D218DB00D21A5B057E2A10DD9E3A13DA30
:10254000CC170903490819435242D14064000134B1
:102550001532202A05DAD0400843604310BD002020
:1025600010BD0846604310BDC80FC018013810BD2B
:1025700018B4044B5B6AFC46019308BD24DF592B59
:1025800000100000F019002018B4044BDB6DFC466D
:10259000019308BD5CDF652C00100000F0190020DD
:1025A000C94211D300B549004908002200F018F8CB
:1025B000002904D4002240428A41114600BD8021F6
:1025C0000906002000BD000018B4044BDB6EFC4679
:1025D000019308BD6CDF672B00100000F01900208C
:1025E00018B4044B9B6FFC46019308BD78DF832B26
:1025F00000100000F019002018B4044BDB6FFC46FB
:10260000019308BD7CDFF12B00100000F0190020C1
:10261000132370B51D78012D19D014DD1F48FFF765
:10262000E3FA06001E48FFF7DFFA1E4C8022310055
:10263000200000F08BFC022D2DD01B48FFF7CCFAB8
:102640001A4B186070BD1A4B164CA364F5E7184B73
:10265000144C23606360A360E36023616361A36142
:10266000E36123626362A362E36223636363A36340
:10267000E36323646364A364E36423656365A36520
:10268000E36523666366A366E36623676367A36700
:10269000E367A364D1E7064BA364CEE7534400008D
:1026A00053460000F01900204C3300001C2B002082
:1026B000B526001007B5604601880A0A0230DF2AF5
:1026C000FAD1C9B2820804D30288408800041043BA
:1026D00000E00068014A5050039007BDF019002047
:1026E0000FB403BC0CBCF0B50124E407634000E068
:1026F000F0B50C0DCF0F661E3605891B640503D39C
:10270000C943404200D30131640D03D0661CF60A70
:1027100007D0E41B00207F00791C89078912803CC8
:1027200024031D0DDF0F6E1E36059B1B6D0503D3A5
:10273000DB43524200D301336D0D03D06E1CF60A09
:1027400007D0ED1B00227F007B1C9B079B12803D66
:102750002D032F1B661B58D4A446202E46DA2037A3
:102760001400BC401D00BD40F24033412A43801894
:102770005941CB0F05D0C943C043002264425041A8
:10278000514162464D0D28D10D0D07D100281FD0B3
:10279000241940414941013A0D0DF9D0640006D396
:1027A000013000D30131002C01D140084000013A32
:1027B0000BD4941CE40A04D112051144DB0719441C
:1027C000F0BDD907204B194300E0D9070020F0BD28
:1027D0000029DDD1002CDBD1F0BD0132C607400855
:1027E000CD0728434908002EE1D0D9E73C2E29DA4D
:1027F000203E40371400BC4000D00124F240144376
:102800001A00BB401C43D317ACE7AC46202F08DAB4
:1028100020360400B4400D00B540F840394128434B
:10282000A5E73C2F0CDA203F40360400B44000D02E
:102830000124F84004430800B1400C43C117EAE703
:1028400010001900002494E70000F07FF0B50C0D93
:10285000661E3605891BE60A6405640D02D0651CF8
:10286000ED0A04D0002001210905803C2403A44680
:102870001C0D671E3F05DB1BE70A6405640D02D0D3
:10288000651CED0A04D0002201231B05803C2403B3
:102890007740644497B484B296B27443070C7E4385
:1028A000150C6F4380B26843361802D30120000430
:1028B0003F183004350C00197D41844688B29AB225
:1028C00050430C0C62431F0C7C438EB27E43921922
:1028D00002D301263604A4191604170C36186741D2
:1028E00001BC81B29AB25143040C62431B0C5C439D
:1028F00080B25843121802D3012000042418100497
:10290000130C401863412D185E410020474106BC5E
:1029100088B293B258430C0C6343120C544389B2EF
:1029200051435B1802D301210904641819041A0CDD
:10293000091862416D1856410020474118BCF90240
:10294000720D1143F0026A0D1043ED020A0D03D11E
:102950006D1940414941013B124E9B1B7600B34229
:102960000ED26D0007D30130002671416646354313
:1029700001D1400840001B05C918E4072144F0BDFF
:102980000BDA013306D1013004D101314F0D01D0F2
:102990004908F2E7E1070020F0BD013631050020CB
:1029A000EBE70000FF030000F0B51C0D671E3F05BC
:1029B000DB1BE70A6405640D02D0661CF60A04D02E
:1029C000002201231B05803C2403D0252D06002670
:1029D000F6432E661E096E66CE0FF619B446490000
:1029E0004F0D02D07E1CF60A03D000200021403F8C
:1029F0003F033E1BB600B444013F7F05C91B490895
:102A00002E6F013676089C02950D25437543ED1314
:102A10007543AD1301356D10F603761B0CB4CC0273
:102A2000450D2C43A2B2B3B25A43270C7B43350C5D
:102A30006F43A4B26C431B1902D3012424043F1931
:102A40001C041D0CA4187D4124196D41009A91B2FB
:102A5000ACB26143170C7C432B0C5F4392B25A43D8
:102A6000A41802D301221204BF182204230C521806
:102A70007B41019C6C431B19520ED9010A4344014E
:102A8000A01A81B2B2B2514303145A43360C7343B5
:102A900087B27743D617D21900277E4136049B1997
:102AA0001704160C7F185E417316ED18F30100260B
:102AB00080337541A90F06D16400690AE8055B0AF5
:102AC000184309D22FE00422944480337541A90AA7
:102AD000A8059B0A184326D3404149412404009A83
:102AE000019B0D005543641B4343E41A95B286B223
:102AF0007543170C7E43030C5F4392B25A43B618DA
:102B000002D301221204BF183204330C52197B4144
:102B100052429C41002C02D4002201305141400815
:102B2000CA071043490802B06246D7079210084B03
:102B3000D218084B9A4203D212058918C919F0BD60
:102B40000020002A01DC3900F0BD01331905F5E74A
:102B5000FD030000FE070000002200B5203200F057
:102B600010F8080000BD002200B500F00CF8CA17EC
:102B70009A4200D100BDD8430121C907414000BDA0
:102B800000220B150AD410B5944600F0A7F81414CF
:102B9000013400DA0021CB17144C2047002000211B
:102BA00070476244343A0CD40C2A07DA040091408E
:102BB000904052422032D440214310BDD843D943E3
:102BC00010BD203207D40C469440524220321141AD
:102BD000D040204310BD0800C917203203D4524210
:102BE0002032104110BD1800190010BDA32B001099
:102BF0004A00520D144BD21A13DDFF2A1EDAD205F9
:102C0000CB0FDB071A43C300400F0903490A0843EF
:102C100010435B0001D301D0013070474308FBD261
:102C2000704702D0C80FC00770470A031213013261
:102C3000F8D1420F072AF5D1012200E0FF22C80F88
:102C400000028018C00570478003000000210A00C0
:102C5000002104E000210A00C11704E00022002343
:102C600006E0C0460022CB1758405940C01A99418F
:102C700030B5184CA21A002903D1010010D0002051
:102C8000203A4C1512D104D2013A001849414C0D9A
:102C9000FAD3114CA24204D212058918DB07C918D5
:102CA00030BDD243520D00200021F5E703D4013A94
:102CB00000184941FBD50B324405C00A4D05284395
:102CC000C90A640003D0002460416141E1E7E0D318
:102CD0004408F8E732040000FE0700000A0DCC0F9C
:102CE000531E1B05C91A520503D3C943404200D3E2
:102CF0000131520D03D0531CDB0A07D0121B0020F8
:102D00006400611C89078912803A1203014BD21AB0
:102D100070470000FF03000051434343C9188C462D
:102D2000110C83B24B4310B4040C614392B280B2D5
:102D3000504362431C041B0C001910BC594113047E
:102D4000120CC01851416144704700004840414096
:102D500048400E4B5B6818470C4B1B6818470C4AE1
:102D6000936F9B0802D2094BDB681847F0B5146ECD
:102D7000556E576F166FFFF7F6FF054A14665566D6
:102D800057671667F0BD014B9B681847F01A002083
:102D9000000000D007B548404140484001E0C0462F
:102DA00007B54200120E03D0FF2A03D1420218D801
:102DB000C00DC0054A00120E03D0FF2A03D14A02FB
:102DC0000FD8C90DC9050122414005D4414001D5A4
:102DD000814207BD884207BD0143491801D0C04365
:102DE000001807BD00B5FFF7DBFF01D9002000BDCB
:102DF000012000BD01231B064200D21804D84A005E
:102E0000D21801D80020704701207047491A0028C5
:102E100008D1084670470000C10FC90700D54042DD
:102E2000002817D0F44603B40B4B1B68984706BC28
:102E300081409E384042803107D20B0607D04900BE
:102E4000490AC0051043084360470130F8E7490AC2
:102E50008902F5E7704700001C2B0020034BDB6F55
:102E6000FC4618477CDF012F00100000F01A0020FC
:102E7000132310B512481C78FEF7B6FE0100012C92
:102E80000AD003DD80220F4800F060F80E48FEF7FC
:102E9000A3FE0E4B186010BD0A4C5422200000F017
:102EA00055F80B4B6365A365E36523666366A3660C
:102EB000E36623676367A367E3672362E361E5E78C
:102EC00053460000F01A00204C3300001C2B002059
:102ED000D52E001007B5604601880A0A0230DF2AA5
:102EE000FAD1C9B2820804D3028840880004104392
:102EF00000E00068014A5050039007BDF01A00201E
:102F0000C30FDB0741000A0E07D0FF2A08D00909CA
:102F1000054A891819434007704719000020704777
:102F20000249C918FAE70000000000380000F07FED
:102F300001480421014B184750110020F91B0010D3
:102F4000014B1B681847000050110020014B5B68C3
:102F500018470000501100209A4200D28854704750
:102F60007047C046F8B55746DE464E464546E0B582
:102F700099460A9B07009A460D9B884693460B9CF0
:102F80009B073BD10C9B9C423DD21E1B0B94150012
:102F90000C005E442A004B46013521002020B84732
:102FA000B542F7D1A0460B9C002C20D045463619DF
:102FB0005346321B013C185D29004B46B847002C94
:102FC000F6D12B00350098460D9B9B070FD55B462D
:102FD000EC1A0C9BA3420AD9464698462A004B4657
:102FE000310020200134B84701354445F6D328008C
:102FF000F0BCBB46B246A946A046F8BD1600150077
:10300000002CD3D1E0E71600002CCFD11500EEE75D
:10301000F0B54F464646D646C0B584B098460EAB8E
:103020001B7894469946129B0D9C109F119E9A07FF
:1030300025D4002E65D1BC4221D201221A409246ED
:10304000202C00D1E9E00C9A551E302202E0202C01
:1030500000D17BE001342A55A742F8D85246002A15
:103060000DD0B4420BD20C9A551E3022202C02D126
:1030700071E0202C2DD001342A55B442F9D1DA0662
:103080003CD55A052ED4002C28D10F9A102A00D1F5
:10309000B6E0022A00D1BCE030220C9C2270012450
:1030A0004A46002A65D15A0700D499E02B220C9D8C
:1030B0002A55013403930C9B6246009302964346C3
:1030C0000194FFF74FFF04B0E0BCBA46B146A846F2
:1030D000F0BD2024DA06EDD55A0503D4A74266D008
:1030E000B44264D00F9A102A71D0022A57D0202CF3
:1030F000E0D02200013430250C9FBD54202CD9D0C3
:10310000CEE7012215001D40AA461A4236D04A4693
:10311000002A4AD10C321A4247D1BC42A1D2202CFB
:1031200091D1202E17D82024DA06C3D55A051BD4F6
:10313000202F01D0202ED5D11F220F9D102D6FD012
:10314000022DD8D162250C9FBD54D0E75246002AEB
:1031500079D0202EBDD92024DA06ABD55A0503D468
:10316000202FE9D0202EE7D00F9A102AA2D12024B8
:10317000A0E72D220C9D2A5501349BE7BC4200D3C9
:103180007DE7202C00D05EE7DA06F0D55A05EED4B4
:10319000202F62D0202EEAD134001F22CDE7202C30
:1031A00000D187E722000134CCE7013EB5E7621E7B
:1031B000012CC2D10F9A102A00D06AE79A063BD59B
:1031C00058220C9C2270283A6270022468E79A0602
:1031D0000ED4202CCBD078220C9D2A55013486E7C2
:1031E0001A0700D466E720220C9D2A55013461E7B6
:1031F000202CBCD058250C9A12191570013476E792
:103200009A0608D558220C9C227030226270022443
:1032100046E76032F7E77822F5E7002A83D1B3E783
:10322000A21E013C9D0603D478250C9FBD5460E787
:1032300058250C9FBD545CE778220C9C2270483ABC
:10324000627002242CE7DA0600D433E75A058BD4E7
:10325000202F00D044E71F226FE73C001F226CE7BD
:1032600010B5002800D110BD01F09EFCFBE7C04660
:103270000B0010B5002802D049681B68984710BDA4
:10328000F0B557464E464546DE46E0B599B0824613
:10329000894690460893229A239B10001900FFF755
:1032A0001AF9002800D0CDE0229823990122D94BA9
:1032B0005242FFF70BF9002800D0C3E0229823996F
:1032C0000122D54B5242FFF7EBF8002800D0B9E0BD
:1032D0002298239900220023FFF7E2F8002800D06B
:1032E000F1E1229E239F8023269ADB001A400D9253
:1032F000269A1A4201D1062324938023269A1B0181
:103300001A403B0093460996334300D0B3E0002AAD
:1033100000D0C2E1002300240A930B94002304256B
:103320000993259B0024AB4200D95C1B0223269AFB
:103330001A400C92269A134203D06B426B415B42B7
:103340001C40099B002B07D00A9A0B9B30003900C8
:10335000FFF73DF806000F00229823990022002372
:10336000FFF79EF8002803D0802109067B181F0074
:10337000269AAA4B009601971340089E0493249B1B
:1033800003940293424633004946504600F0AAF99E
:103390000400002D67D02020269A494602401300E1
:1033A0005A4253415B42621C18400A923300220089
:1033B0004530D047099A6F1ED317D4185C40D30FFD
:1033C0009B46002501E0202D13D008AA94461F2318
:1033D000200063440A2101355E19FEF7ABFD303150
:1033E000317020000A21FEF7A5FD26000400092EF9
:1033F000E9D805230693002304930A3303935B461D
:10340000089E029310AB0A9A009349463300504637
:1034100005970195FFF7FCFD0C9A0400002A22D0C5
:103420004246851A259AAA421DD9B046574616002B
:1034300022004346494620200135B8470134AE42B8
:10344000F6D810E0269B42460493259B49460393F9
:10345000249B50460293229B239C00930194089B3B
:1034600000F040F90400200019B0F0BCBB46B246A1
:10347000A946A046F0BD6A4B78009C46400D6044CA
:10348000FFF73AF8674A684BFEF7BFFF674A684B99
:10349000FEF794FF674A3B031B0B1A4304000D0021
:1034A00009981100644B0022FEF77FFF634A644BCA
:1034B000FEF7ABFF02000B0020002900FEF77EFFA5
:1034C000FFF732F80990FFF717F85E4A5E4B0400E9
:1034D0000D00FEF79AFF00225C4BFEF76FFFFFF72F
:1034E00023F85B4A5B4B29000C902000FEF78DFF10
:1034F00004000C980D00FEF7FFFF574A574BFEF7EC
:1035000084FF02000B0020002900FEF74EFF04009C
:103510000D0002000B000A940B95FEF776FF0400E5
:103520000D000A980B9902000B00FEF747FF0022DE
:103530000E900F914A4B20002900FEF748FF002211
:10354000484BFEF73BFF02000B0020002900FEF76E
:103550003EFF0022444BFEF731FF02000B0020002B
:103560002900FEF734FF0A9A0B9B0D00802104000E
:10357000C9050020FEF719FF02000B0020002900FA
:10358000FEF71CFF02000B000E980F99FEF71FFFBD
:103590000022284BFEF712FF344B0C9C9C466444DF
:1035A00023050022FEF731FF04000D0002000B008E
:1035B000300039000A940B95FEF772FF00285DD1A8
:1035C00023002A00C625099963318D42AD41594631
:1035D0006D420435002900D1A3E6134363D03000C7
:1035E0003900234A234BFEF769FF002807D0002249
:1035F00030003900204BFEF753FF002853D1249BA5
:10360000002B00D18DE60D9B5A1E9341249AD31AAC
:10361000249386E6FFFFEF7FFFFFEFFFFFF7FFFF3B
:1036200001FCFFFFFB799F501344D33FB3C8608B6D
:10363000288AC63F0000F03F0000F83F61436F63F7
:10364000A787D23F71A379094F930A400000E03F5A
:103650001655B5BBB16B0240EF39FAFE422EE63F7C
:1036600000002C400000244000001840FF03000030
:103670002D431CEBE2361A3F80842E41099B002229
:10368000013B09932000164B2900FEF7A0FE0A001B
:10369000010003000A910B9294E7002300240A938F
:1036A0000B9400230993249A099B9A4214DDD31AA0
:1036B000013B24938023269ADB001A430023002534
:1036C000269209932DE6802212069446229B1E0024
:1036D000239B63441F0006E600232493EAE7C046C9
:1036E00000002440F0B54546DE464E465746E0B55C
:1036F00095B08B46904699461E9A1F9B0A901900DA
:103700001000209DFEF7E7FE002800D0B0E11E98D3
:103710001F990122C74B5242FEF7C2FE002800D07B
:1037200037E11E981F990122C34B5242FEF7CEFE8D
:10373000002800D0A7E01E981F990022BF4BFEF77B
:10374000C5FE002800D088E01E981F990022BC4BBF
:10375000FEF7A6FE002800D07FE01E981F990022E9
:103760000023FEF79DFE002800D0FAE000230B9313
:103770008023229C229ADB001C401A4200D102E1E5
:10378000092D00D87CE106A98C462C0017220023C5
:103790003021093C62440133D154EF1A202B00D16F
:1037A00032E1A342F7D10022A44B069207931E9860
:1037B0001F99FEF7B9FE0500FEF79EFE02000B0002
:1037C0001E981F99FEF7F1FD069A079BFEF71DFE56
:1037D00008900991FEF7CCFE0600FEF789FE020074
:1037E0000B0008980999FEF7E0FD0022954B089020
:1037F0000991FEF76BFE002800D1D2E001363000BF
:10380000FEF776FE069A079BFEF758FE002801D0C9
:1038100000260135AA46002F00D098E02800FEF7C8
:103820006BFE02000B001E981F99FEF7BEFD854B34
:10383000002206000F00FEF733FE0CAB9A4600286C
:1038400045D10022300039007E4BFEF73FFE0028B4
:103850003DD1EB073BD5013539E0229B424604932D
:10386000219B594603930A981E9B1F9C0295009327
:1038700001944B46FFF704FD15B0F0BCBB46B246C1
:10388000A946A046F0BD229B5B0767D403226E4B7E
:1038900022990192039121990291009342464B464D
:1038A00059460A98FFF75EFBE6E706AA94461723F7
:1038B000280063440A2101341E19FEF713FB30313E
:1038C000280031700A21FEF70DFB051E76D0202C52
:1038D000EBD10323229A1340012B1DD1219B002BF6
:1038E0001AD00B9B002B00D0BBE0229A0C33134262
:1038F00000D0B6E0219BA34200D887E006AB9C46EF
:1039000017223023624404E02199013413558C427C
:1039100059D0202CF8D12024229B01940393219B81
:1039200002935346B9E706AA944617230A21634433
:10393000300001341D19FEF7FDFA303129703000D6
:103940000A21013FFEF7F6FA092E46D90600202C7F
:10395000E9D155460CAB20249A46B8E704223B4BEC
:1039600096E71E9A1F9B00200021FEF71EFD0123F3
:103970000B938023229C229ADB001E901F911C40F7
:103980001A4200D0FCE60022314B0627069207932C
:103990000DE7229B0393219B0293042301932D4B5C
:1039A0007BE7002208980999264BFEF779FD00284D
:1039B00000D02FE7002E4FD101362BE70323229AA8
:1039C0001340012B66D0202CA6D00B9B002B1FD0C0
:1039D0002D235246135501349EE75546202CB9D06D
:1039E00030233A19002F08D0172006A901340918EE
:1039F0000B55202CAED09442F6D10CAB9A462E2318
:103A000052461355013462E72024CCE6202C83D0A3
:103A1000229B5B0708D4229B1B0700D47CE7202352
:103A200052461355013477E72B2352461355013480
:103A300072E7C046FFFFEFFFFFFFEF7F65CDCD418F
:103A400065CDCDC10000E03F8CF0001084F0001087
:103A500080842E4194F00010F30700D4DAE601369A
:103A6000D8E6219B013B2193A34200D946E7AAE770
:103A7000229B0393219B029303230193074B0CE7A3
:103A8000074BEA009B185C681B682F00069307949D
:103A900000248CE6219B002B95D022E790F00010AB
:103AA00088F40010F0B55746DE464E464546E0B570
:103AB000A5B01F002E9B91460D93CA4ACA4B824661
:103AC0008B461A60002900D129E2002338789846F5
:103AD000002800D12BE2C54B44460C93C44B5546FD
:103AE0004E460E930AE0631C984622003300594666
:103AF000A84744463878002800D187E001372528B8
:103B0000F1D108239A46043B9946023B9846013B73
:103B100000229C460B943878791C0300203BDBB2D2
:103B2000102B03D80C9C9B00E3589F460300303BAE
:103B30000B9C0B92092B3AD9002398462A2800D1D6
:103B4000DDE000239A462E284BD00300683BDBB211
:103B5000122B1ED80E9A9B00D3589F4663460F0027
:103B60001A43D8E743460F001A43D4E74B460F00E9
:103B70001A43D0E710230F001A43CCE753460F0037
:103B80001A43C8E780235B000B9A78781A430B929C
:103B900001310F0067284FD82428A4D90300253B02
:103BA000DBB2422B9FD893499B00CB589F46002302
:103BB00098460B9B47469C4600E00131BB00DB1951
:103BC0005B001F180878303F0300303B092BF4D905
:103BD00063460B930023B8469A460F0001312E2806
:103BE000B3D180200B9AC00002430B923022524284
:103BF000944678780B0084446246092A00D8AAE1EA
:103C00002A2800D1B9E10F0001319EE7A046AA465B
:103C1000B146C84503D301235B424B4498464B460B
:103C2000424659460020D047200025B0F0BCBB4694
:103C3000B246A946A046F0BD01006939C9B20F29B4
:103C400000D950E701238B409C466B4B9946634655
:103C50004A4613400F9362464B461A4200D068E131
:103C60000A2956D0072900D03DE70D9B02CB984684
:103C7000002900D092E10B9B10211A008A4310000A
:103C800011310843814680201A00C0000240110013
:103C900003421CD114AB9C461F220F2362440D9596
:103CA0009C4615000F9B0B9402E0202B0CD01100BA
:103CB00064460C4020003730092C00D80738013307
:103CC000E8540A090F29F0D80B9C0D9D0F934B4621
:103CD0000822069353460592083203920022049369
:103CE0000F9B029201931CAB2200009359463300B4
:103CF0002800FFF78DF9434604000D93FAE60D9B6B
:103D000004CB9046002A79DB78780D930F000131BF
:103D100017E70D9B02CB14930B789C461800534673
:103D2000002B00D134E1002815D05346013B01336C
:103D300099460D940B9C89444A460B00A14601E02C
:103D4000934203D05C780133002CF9D14A465B1AC8
:103D50000D9C0B920F938023DB0099460B9A134026
:103D60000D934B461A4204D00F9B534501D953463D
:103D70000F93022399460B9A13400B934B46134221
:103D800000D1F5E16346002B00D1D6E10D9B002B5D
:103D900000D182E10B1BD14631009A463B00A14481
:103DA0002E005F464D4622009B46894609E04B4661
:103DB0003900541CB0475346185D002800D192E1E9
:103DC00022009542F3D14B465A46A946BB463500E0
:103DD00017001E004C460B9B002B00D0ADE1149B3E
:103DE0000D9387E6A53A0010F02A0020ECF20010AF
:103DF00030F300107CF30010419000000B9A28383B
:103E000002430B9242465242787890460F000D933F
:103E1000013196E678786C2800D15DE180230B9A19
:103E20005B001A430B920131B3E680239B00ABE6A3
:103E30007878682800D148E180230B9A01311A4331
:103E40000B92A6E6672800D1B2E0472800D11AE11C
:103E5000452800D11CE10B9A0721049242460D9B94
:103E60000392073352468B43190002920CC9280073
:103E7000009201930D91220033005946FFF700FA9A
:103E8000040037E6462800D18DE00B9A0721049202
:103E900042460D9B0392073352468B431900029210
:103EA0000CC92800009201930D912200330059465D
:103EB000FFF718FC04001DE6631C9846220033003F
:103EC00059462520A847444614E60D9B04330F931A
:103ED000631C99460B9B9A0700D40AE10D9B2200B4
:103EE000187859463300A84743464444012B00D86C
:103EF0006FE1B0462E0025004C46B9465F462200D1
:103F00004346013439002020B047AC42F7D12C00A1
:103F1000BB4635004F4646460F9B0D93EAE5D64B10
:103F200038789A4600239846002800D0D3E500242C
:103F30006FE66F2842D000D8FDE11023782800D129
:103F40009BE00B9A9A430B920A239C4600231493FE
:103F50000A330F9338E057460B9AB900C919490044
:103F600001330F181878303F010030390929F4D98E
:103F7000BA460B921F00591CE7E50D9BB87804CB9D
:103F80000237D143C9170A4092460D93791CDCE5EC
:103F9000002800D1DFE602235B42C8E621200B9A0D
:103FA0000243914676E620230B9A1A430B926CE764
:103FB00080230B9A1B011A430B924CE708239C4663
:103FC0000023149308330F930B9880230200DB0027
:103FD0001A4011000200184200D080E00C239A43DE
:103FE0001000802302009B001A400B92184200D060
:103FF000F1E0802302005B001A4091460D9A0432E2
:104000001492184200D0C3E2430600D5D7E003065D
:1040100000D421E30D9B1B880993002B00D02DE1D8
:1040200010339843002900D128E1002399464346E4
:104030000593534604930F9B06900393002302932A
:104040004B4601931CAB22000093594633002800D5
:10405000FEF7DEFF0400C2E6582809D0622800D02F
:10406000E3E202239C460023149302330F93ABE751
:1040700020230B9A1A430B92103B9C460023149367
:1040800010330F93A0E780230B9A1B011A430B9266
:1040900020230B9A1A430B92DDE60B1B9A460F9BCB
:1040A00099463B0037005E469B4622003B003100AC
:1040B000A84753460134185D0028F6D14B460F93AC
:1040C0005B46B3463E001F0085E6C0230B9AB878D6
:1040D0001A430B92F91C5CE5C0239B00F6E70D2305
:1040E0009A4310007DE75B463500BB464E461F00F5
:1040F00071E64346012B66D9631E434432002E000D
:104100001D003B00A2465F4691469B4622004B465F
:10411000013439002020B047AC42F7D15B4635006E
:10412000BB464E46A14654461F000D9B4A46187892
:10413000594633004444A847EEE60F9BA1469845F4
:1041400000D84CE64444E41AB0462E0025004C4604
:10415000B9465F4622004346013439002020B0476B
:10416000AC42F7D12C00BB4635004F46464636E6FA
:104170000F98804500D873E24346E218131A3200C4
:104180002E001D003B0091465F469B460F9122008A
:104190004B46013439002020B047AC42F7D15B4692
:1041A000BB461F0043460F9901330F930B78350030
:1041B0009C464E466046002800D0E7E50FE60D9B82
:1041C0001B78099329E70D9B220018785946330084
:1041D000A8474C46A0E60D9AFA3BFF3B07329A43AC
:1041E0000133994691444B460D93136852681592DA
:1041F0001A4306D11032904300220992002900D0C0
:1042000083E06122810600D54122D2B20A9214AA2B
:1042100091460A9A00210A3A0B9242461792524658
:1042200018925A46B24609911E001F31149B494408
:10423000BB4616941A950024674698468946159DF4
:1042400019901B920AE03032D2B24B4601341A5513
:10425000A8454CD0202C4CD006000D003A0000237D
:1042600030002900FDF7A4FED2B2092AEBD90B9B3E
:104270009C466244D2B2E8E7612F001061238206B7
:1042800000D54123DBB20A3B0B93434614A91F22FE
:104290008C46159353466244B2460D9417974C468C
:1042A0008046A9461700099D0F9E169308E03033FB
:1042B000DBB201343B55B5420ED3202C0CD00500A7
:1042C00031002800FDF736FECBB20929EFD90B9A51
:1042D00094466344DBB2ECE7159B40469846169B38
:1042E0004D465646A1469A460D9C179F9FE6B742FB
:1042F000B0D9179B56469846189B5F469A461B9B1B
:1043000009949B46169C19981A9D4346059353465B
:1043100004930F9B0690039300230293099B019340
:104320001CAB22000093594633002800FEF770FEB4
:104330000400FFF7DFFB10230B9A9A430F926928C2
:1043400000D091E10B9980230A00DB001A40100095
:104350000A00194203D0112118008A430F920F9AC4
:10436000802311009B0019408C461A425BD18023A8
:1043700011005B00194089460D9904310B911A42D6
:1043800000D0B2E013005B0600D4EDE00D9B1B787B
:104390001A00D90F0D91002B00D1A3E0100014AA30
:1043A000944642461F23159252466344A846BA4695
:1043B0004D461494B14604001F00169201E0202DD2
:1043C0000FD020000A21FDF7B5FD01357E193031EF
:1043D000317020000A21FDF7ADFD26000400092EF2
:1043E000EDD8159B4E46A94645469846169B57461E
:1043F0009A46149C0F9B0693434605935346049399
:104400000A2303930D9B02934B4601931CAB22009E
:104410000093594633002800FEF7FAFD0B9B040079
:104420000D93FFF767FB07220D9B07339343013280
:1044300094469C4462460D920CCBD90F0B9111000F
:10444000194300D19BE0D91713911291514010915B
:1044500013995940119110981199129A139B801A2F
:1044600099411090119114AA944642460023159246
:1044700052469946169232001F336344A8464E4670
:10448000BA4614941F00109C119D914601E0202E05
:1044900010D0200029000A220023FDF789FD0136F3
:1044A00030322B00BA550D0022000400002BEED153
:1044B000092AECD8159B10941195454698464B4611
:1044C000169AB14657461E009246149C0F9B0693BF
:1044D00043460593534604930A2303930B9B02938D
:1044E0004B461CE7002885D159E70D9B1B68DA0F66
:1044F0001100002B00D1A6E0DA179818504014AA3A
:1045000091461F2342464B44A8460D94169704003B
:104510006546B1461F001491159201E0202D0FD081
:1045200020000A21FDF706FD01357E19303131707A
:1045300020000A21FDF7FEFC26000400092EEDD81C
:10454000159BAC4645469846149B4E4619000D9C5B
:10455000169F0F9B0291069343460593534604937F
:104560000A230393634650E713001B066ED50D9B89
:1045700000229B5ED9175A184A4092B209E70023DD
:1045800099460028A2D100220023109211936AE7D5
:104590000D9B1B689946002B03D1103398430029CB
:1045A00038D16123820600D54123DBB20A3B0D934B
:1045B00043461693534614A91F228C4617932B008B
:1045C00062444D46B24615941897804617009946A6
:1045D0000B9C0F9E08E03033DBB201343B55B542F3
:1045E0000ED3202C0CD0050031002800FDF7A2FCD2
:1045F000CBB20929EFD90D9A94466344DBB2ECE7BC
:10460000169B40469846179B56464D469A460B9435
:10461000189F159C43460593534604930F9B0690A1
:104620000393002302930B9B0BE50B9980230A0055
:10463000DB001A4010000A00194200D08BE610235C
:104640009A430F928BE6002883D158E70D9B1B6895
:10465000D9175A184A409CE60D9B1B680993DCE465
:10466000030001330F93A5E50B926DE40EB4012214
:1046700030B584B007AC08CC064D0100009428008A
:1046800052420394FFF70EFA04B030BC08BC03B0EA
:104690001847C046592F00100CB430B585B008AC8F
:1046A00008CC064D0A000094010028000394FFF78F
:1046B000F9F905B030BC08BC02B01847592F0010FA
:1046C00000B585B0039101210290009303481300C7
:1046D0004A4202A9FFF7E6F905B000BD71320010A9
:1046E0000FB430B50C4985B008AA08CA0D6803920A
:1046F000002D0CD000920122084C5242200002A949
:10470000A847012005B030BC08BC04B01847180009
:1047100000F096FA0020F5E7F02A00206132001040
:1047200010B5094A0300146884B0002C08D0012297
:1047300000910648524203A9A047012004B010BDD1
:1047400000F07EFA0020F9E7F02A00206132001024
:1047500000BEFDE7094A03001068002805D008499B
:10476000C3188B4207D81360704706480449C31822
:1047700010608B42F7D901204042F5E7CC2600209B
:1047800000000420482B0020030010B50800110091
:10479000002B05D1044B1A685B6800F05BF910BD73
:1047A00001204042FBE7C04690F200100300013BAD
:1047B00010B508001400012B06D8012300222100A7
:1047C00000F0C8F8200010BD01204042FBE7C046C1
:1047D000012040427047C046012040427047C04619
:1047E00010B5FFF7B5FFC04630B50D0083B0190016
:1047F000002A0BD0074B084C0192009302002B00BB
:104800002000FFF76DFF0120FFF7A2FF034B1A0006
:10481000F1E7C0469CF00010ACF0001064ED001011
:1048200070B5FDF73BFA074D074EB54209D200249B
:10483000013E761BB60808CD984723000134B342E9
:10484000F9D170BD0CED001018ED0010030010B58B
:10485000080011001B68984710BDC046F0B5C64659
:1048600000B5437D07000D001600002B38D0002A4C
:104870002EDD00216A1E90466A5C037D4C1C0020E0
:104880000A2A0CD0A64216D043461B5D21000D3BE0
:104890005A4253416A5CDBB24C1C0A2AF2D1002B0B
:1048A000F0D1884217DB022110483B689847A642A6
:1048B00007D02000E8E7864203DD311A3B6828185C
:1048C0009847AD19013D2B780D3B5A4253413B753A
:1048D00080BCB846F0BD091A3B6828189847E2E743
:1048E0000368110028009847F2E7C046D8F400108A
:1048F000F0B5C6460B6806000C0000B5802B06D04C
:104900005A1C2260E418267180BCB846F0BD0F4BDB
:104910001D68002D16D00B1D98460D4F02E02D6925
:10492000002D0FD02B68002BF9D03B68002B01D055
:10493000AB42F4D1280041462268FFF78FFF2D6972
:10494000002DEFD101220023DBE7C046C026002066
:10495000C8260020F0B5DE4657464E464546E0B52F
:1049600085B017001C0006000D00FCF74BFF00236C
:10497000314A12184B41802109068B4202D3012291
:104980002E4B52422E4908008A460AF079F90190CE
:104990006B1C03D1300006F00BF80500002C26D06C
:1049A000284B9846284B1C68002C15D0002F21D18D
:1049B000264F02E02469002C0ED02368002BF9D08A
:1049C0003B68002B01D09C42F4D120002A0031002A
:1049D000C0472469002CF0D1019B002B28D128006E
:1049E00005B0F0BCBB46B246A946A046F0BD184B88
:1049F0009846D7E7154B994602ABDF1D0A239B4625
:104A000002E02469002CE7D02368002BF9D04B4644
:104A10001B68002B01D0A342F3D12A0031002000F3
:104A2000C0475B460122390020003B70C047E8E7E1
:104A300050460AF0EDF8D2E740420F00FFFFFF7F3B
:104A4000581800205D480010C0260020C82600200D
:104A50004D480010F8B557464E464546DE46984646
:104A60001A4BE0B59B461A4B07000E0091469A463A
:104A7000184D5B461C68002C03D115E02469002CFE
:104A800012D02B68002B01D0A342F7D1A368002BD2
:104A9000F4D03100380098470028EFDDF0BCBB4669
:104AA000B246A946A046F8BD53465B6A984508D869
:104AB0005246926A4A4502D302204042EEE79845A8
:104AC000FAD101200021FCF7A7FED2E7C026002082
:104AD00000400540C82600200A4A1368002B05D173
:104AE0000CE01A001B691032002B07D09842F8D155
:104AF000002902D103691360016170470029FCD0CD
:104B00001060FAE7C026002010B500F04FFB10BD82
:104B1000F0B5CE464746040080B583B0FCF772FE80
:104B200026000027802336184F411B069F4202D3E0
:104B30000126194F7642194BB9469846184D4346FF
:104B40001C68002C03D116E02469002C13D02B68BC
:104B5000002B01D09C42F7D1A368002BF4D0012197
:104B600001A898470028EFDD6B46187903B0C0BC58
:104B7000B946B046F0BD0B4B5A6A914507D89B6ABF
:104B8000B34202D302204042F0E79145FAD101201E
:104B90000021FCF741FED2E7FFFFFF7FC026002087
:104BA000C826002000400540F0B5CE46474680B5F7
:104BB00083B06B460600DD1D2870FCF723FE002342
:104BC0001A4A12184B41802109068B4202D3012256
:104BD000174B52421749080088460AF051F8164B05
:104BE00081461C68002C14D0144F02E02469002C6C
:104BF0000FD02368002BF9D03B68002B01D09C42DA
:104C0000F4D1200001222900FFF728FE2469002C9E
:104C1000EFD14B46002B05D1300003B0C0BCB946E4
:104C2000B046F0BD404609F0F3FFF5E740420F0003
:104C3000FFFFFF7F58180020C0260020C826002054
:104C400070B5040005F0B4FE012301000500012247
:104C50002000FFF77FFE084B1C68002C06D063681D
:104C6000002B05D098472469002CF8D1280070BD8E
:104C70002469002CF3D1F9E7C0260020F0B5CE4618
:104C8000474680B5A3B004000D00FCF7BBFD002330
:104C9000294A12184B41802109068B4202D3012276
:104CA000264B5242264F380009F0EAFF0023060047
:104CB000019322002B00234801A9FFF701FD019B6E
:104CC0008046002B14D1204B1C68002C06D0636852
:104CD000002B0BD098472469002CF8D1002E25D149
:104CE000404623B0C0BCB946B046F0BD2469ECE7ED
:104CF000154B1D689946002D1CD0144C02E02D69FF
:104D0000002D0FD02B68002BF9D02368002B01D089
:104D1000AB42F4D12800019A02A9FFF79FFD2D694B
:104D2000002DEFD14B4601951C68CEE7380009F005
:104D30006FFFD5E70195D1E740420F00FFFFFF7FEE
:104D400058180020F1480010C0260020C826002076
:104D50000FB400B583B004A901C90191FFF78EFF1C
:104D600003B008BC04B018477047C0460022014B8E
:104D70001A707047422B00204B790020FF2B0BD17B
:104D80008B79002B08D1CB79012B05D1082A03D9C7
:104D9000024B8A7809301A707047C046422B0020B7
:104DA0000120704710B5012901D0012010BD134921
:104DB0005379107909781B02034300209942F5D1F9
:104DC0005378012B08D0022BF0D10020642200215F
:104DD000FCF7ACFE0120E9E7D37891781B02194378
:104DE000DB0507D54A0A100001231A407E3319401B
:104DF000FCF724FF01204A0A4042F5E7422B00203D
:104E000000487047A4F5001070B50500140001209B
:104E1000012909D153780020012B05D1637912793A
:104E20001B021343072B00D070BD21002800024A4B
:104E30009F3301F05FFAF7E7FCF4001001230370E1
:104E400000487047DCF400104B780A781B021343CB
:104E50008A7810B512041A43CB781B0613439622A6
:104E6000D200934200D010BD002201201100404228
:104E7000FCF7E4FE024B1860024B19607047C04615
:104E8000D8250020DC25002010B5024B1878FBF750
:104E90007FFE10BD442B0020154B70B51A68002A08
:104EA00022D0EFF3108172B610680028FCD0BFF357
:104EB0005F8F00200F4A596010701B68BFF35F8F2F
:104EC000186081F31088002400250B4E3078FBF722
:104ED00053FE002804D1002400252900200070BDC5
:104EE0003078FBF755FEF8E7FA240025A400ECE73C
:104EF000FC2A0020452B0020442B002070B5040024
:104F000000200E0001F016FB002836D0002001F032
:104F100027FB002831D0FCF775FC0023184A121833
:104F20004B41802109068B4216D2164D280009F00C
:104F3000A7FE002821D0002001F0FCFA00280FD1A4
:104F400001200021404200F009FD032464422800B2
:104F500009F05EFE200070BD01220B4B5242E4E7D7
:104F6000002001F0FDFA0028EAD0210032000020E4
:104F700001F000FB041EEAD1E7E703246442E9E7FD
:104F800040420F00242B0020FFFFFF7F10B5FCF7ED
:104F900039FC00230E4A12184B41802109068B422E
:104FA00002D301220B4B52420B4C200009F068FE49
:104FB00000280CD001200021404200F0CFFC00204E
:104FC00001F022FB0028F5D1200009F021FE10BDE0
:104FD00040420F00FFFFFF7F242B0020F8B5DE4684
:104FE000574680B505000C00FCF70CFC0023374A3F
:104FF00012184B41802109068B4202D30122344B07
:105000005242344908008A4609F03AFE002803D18A
:10501000C0BCBB46B246F8BD002001F08BFA0028A8
:105020004AD00026002C43DD2B4B9B4614E0A919E7
:10503000002001F023FB070001200021404200F086
:105040008DFC002001F0E0FAFCF7DCFB224BF619A6
:1050500018605960B4422BDD002001F02FFBA71B24
:105060000200B84200DD3A00002AE0D10120002110
:10507000404200F073FC002001F0C6FA002001F06D
:1050800059FA002814D0002001F018FB0028E1D1C3
:10509000FCF7B8FB5B460F001A685B68002184468A
:1050A0000E4812184B419F4202D8D3D19445D1D912
:1050B000504609F0ADFDABE700200021064B18601B
:1050C0005960504609F0A4FDA2E7C04640420F00D7
:1050D000FFFFFF7F242B0020E019002020A1070004
:1050E00030B52B4C85B00021200009F0B1FD00281F
:1050F0001CD1284B1A68002A16D0EFF3108172B623
:1051000010680028FCD0BFF35F8F0124224859604B
:1051100002781B68D2B20470BFF35F8F0020186062
:1051200081F31088002A17D005B030BD012000217E
:10513000404200F013FC002001F012FA05002000AC
:1051400009F066FD002DEFD0144B1B68002BEBD04F
:10515000134A10689847E7E7FCF722F90400FCF7C8
:1051600051FBFA220023920012184B4180210906BC
:105170008B4202D301220B4B5242012102910021AA
:105180000191094920000091FCF70EF9CCE7C046D7
:10519000242B0020FC2A0020452B0020D8250020AD
:1051A000DC250020FFFFFF7F994E0010D02310B5B3
:1051B0001B0684B01C68FCF7F3F8FCF7F1F9A04279
:1051C00002D0002004B010BD2A4B002100201B7823
:1051D00001F070FD28480368002B47D00120FBF741
:1051E0006FFEFF23254C264920701840FBF7EAFC90
:1051F00020780121FBF7AEFC0520FBF7D1FC00284D
:1052000026D1082200211F48FDF79AFEFCF7C8F8B6
:105210000400FCF7F7FAFA220023920012184B411F
:10522000802109068B4202D30122174B52420121F1
:10523000029100210191154920000091FCF7B4F87A
:105240000028BEDB12480121FFF746FC0120B9E728
:105250000120FBF74DFC0B4B01001800FBF792FE01
:10526000002205200B49FBF7D7FCEBE7FBF76EFEAE
:10527000B4E7C046B40D0110242B0020442B0020BD
:10528000E1500010FC2A0020FFFFFF7F994E001024
:1052900060110020894E00100048704740F6001051
:1052A00000487047ECF5001010B50400174803786B
:1052B000002B20D0002C06D1154B16484380063B0E
:1052C000FF3B038010BD052C19D8134BA400E058F8
:1052D00012490123013804E001330A800231142B02
:1052E0000FD0C25C002AF7D1C022DBB25B00920073
:1052F00008481343E5E7112100F01AF8DAE7002027
:10530000E0E7CA2303489B00DBE7C0462C2B0020C4
:105310000904000098260020D4F500109A260020E9
:1053200010B5024800F0D8F810BDC046142B00207C
:1053300030B54B1E012900D1A7E0664A11780D094E
:105340002C0030349F2900D9A2E00470012B00D139
:10535000BEE00F21147821400C003034092900D917
:1053600098E04470022B00D1B2E05478250929005E
:1053700030319F2C00D990E08170032B00D1A7E041
:105380000F2121400C003034092900D987E0C47076
:10539000042B00D19CE094782509290030319F2C02
:1053A00000D97FE00171052B00D191E00F21214050
:1053B0000C003034092900D976E04471062B00D165
:1053C00086E0D4782509290030319F2C00D96EE081
:1053D0008171072B00D17BE00F2121400C0030347C
:1053E000092966D8C471082B00D171E01479250908
:1053F000290030319F2C5FD80172092B68D00F2112
:1054000021400C003034092958D844720A2B5FD04F
:1054100054792509290030319F2C52D881720B2BE9
:1054200056D00F2121400C00303409294BD8C472CA
:105430000C2B4DD094792509290030319F2C00D9AF
:10544000073101730D2B43D00F2121400C00303464
:10545000092901D937310C0044730E2B38D0D1798A
:105460000C09220030329F2900D9073282730F2B9A
:105470002ED00F220A4011003731092A01D83032CC
:105480001100C173102B23D010300023037030BDE6
:1054900007345AE737310C0063E707316CE73731DF
:1054A0000C0074E707317DE737310C0085E70731E1
:1054B0008EE737310C0095E707319DE737310C0057
:1054C000A3E70731AAE737310C00C4720C2BB1D126
:1054D000C018DAE7142B002010B588B004000D22A4
:1054E00000216846FDF72CFD0D22002104A8FDF7E0
:1054F00027FD4B236A466846137004A90D2209F064
:1055000077FB1521082220006944FDF71FFD08B034
:1055100010BDC046F8B500F043F90C23194DFF2229
:10552000AB6705201849FBF777FB184C4022002198
:105530002000FDF705FD4027002301262121144A04
:1055400066702783A260136063545F3161844539BC
:105550006354104A10496360E2602787A1620B60C0
:105560006362E26209F09CFB80239B052E64EB647E
:1055700090230A4A0120EA508022094B5202DA6441
:10558000F8BDC04600001150E1040020D0260020E4
:1055900084001050000110508000105010D0010005
:1055A0000020115010B501210520FBF7D3FA10BDE2
:1055B00010B500220021024800F012F910BDC046CB
:1055C000F0260020044B1970002904D0802190237C
:1055D000024A8902D15070473E2B00200020115012
:1055E0000B785B0602D14B78052B00D070478A7888
:1055F000014B1A60FAE7C04600001150F0B5C646EC
:10560000C87800B58007830F1800012B60D08F7811
:105610000A794B797F213940FC091B024E00134364
:10562000334D32195201AA189770012767405770FD
:1056300000275B055B0DD7701383D076B846CA0090
:10564000012C32D02B4FBC468F016244BC46AC4487
:105650006746BA6047461760002932D0264AC9001B
:1056600090466246414451603F223F3393430228B3
:1056700037D0224937190A687F01D3180B602049B7
:10568000EF19FA608B422ED836197601AD19EB7EF0
:105690001C499B064A4013438022120613436A6842
:1056A0001360012080BCB846F0BD174FBC468F0187
:1056B0006244BC46AC446746BA624746176000295C
:1056C00008D1002364012C196360104BE360E8E704
:1056D0000020E7E70B4AC900904662464144516208
:1056E000C2E75B00C5E7FCF7D3FAFA68CCE7C0462F
:1056F000D02600208400105004001050F82A00200A
:10570000FF0F10500000105080001050000110508A
:1057100010B509F0C5FA10BD10B57F200C0020406F
:105720004000E409110000191A00034B4001C018A1
:1057300000F056F8012010BDD02600207F2318006D
:1057400010B50840CA090B4203D107497D3B9B1A9B
:105750008B66400080188022044B40010021C01855
:10576000120109F0ADFA10BD00201150D026002022
:105770007F22130010B50B400A4200D110BDC909A9
:105780005B005B1804485B01C0180023002203493A
:10579000C37009F095FAF1E7D0260020FFF7FFFF6C
:1057A00080220A4B520410B51A60094B09491A604D
:1057B00010000B689843FBD180220021520106485B
:1057C000FDF7BEFB0922054B5A6710BD00E0004003
:1057D00000F0004008C000400000105000001150D0
:1057E000002310B5C38201338282837601610400F5
:1057F00009F01EFA002804D080219023074A89026C
:10580000D150200009F054FA002802D00123237758
:1058100010BD200009F03CFAFAE7C0460020115004
:105820007047C0467047C046002070470020704750
:105830007047C0467047C0467047C0467047C04674
:10584000024B5878431E9841C0B27047EC200020AC
:10585000024B18784007C00F7047C046EC2000206C
:10586000F0B5D6464F464646C0B5314B07009A467E
:105870001B780E00FF2B01D0012044E0002941D00D
:10588000002154222B48FDF75BFB00222A4C2B4BB6
:1058900020001A70FBF75AFB294B1C60294C200092
:1058A000143CFBF761FB200001F00CFE264B274D5A
:1058B0001C60274B002B2BD02800FFF7BFFA254B8D
:1058C0002A78186024490024894622490023884602
:1058D00010E043461B6862019B18002B12D05B68E6
:1058E000002B0FD098472A780134E4B2511C2300D2
:1058F000A1420FDBA242ECD89B1A5B014B445B68D0
:10590000002BEFD10020E0BCBA46B146A846F0BD5E
:105910002A78D7E75346310038001F70FFF7FAFDA9
:105920000028EFD03800FFF73DFE0120EBE7C0462E
:1059300094110020EC200020E42000203F2B0020C8
:10594000402100208C110020442100203D2B00200C
:105950003D4E00103C1F0020FCF60010F0B5DE4666
:1059600057464E464546E0B5C84B91B002931B786A
:10597000FF2B00D13EE1C64BC64E9B465F46C64B51
:105980000DAC0193C54B009335686A69EFF3108144
:1059900072B61368002BFCD0BFF35F8FA96128009B
:1059A000210001F0BDFB6A69AB69BFF35F8F002185
:1059B000116083F31088002800D11BE16378082B65
:1059C000E2D89B00FB589F466368002BDCD0A068A0
:1059D0009847D9E77F222179AF4D0A405300EB1851
:1059E0009846C809804440460123303005799D43DC
:1059F0000571057903339D430571002A00D100E14B
:105A00004346A74A1B7D1278934200D3EFE0A54A94
:105A10005B011568ED18002D00D1EBE0A3686279F9
:105A20002078AD69A847AFE79F4A1378002B00D1D3
:105A3000E0E01378013BDBB213701378002BA3D1A5
:105A40000122954D01212B78042013432B70342320
:105A5000EA5C8A43EA54EA5C8243EA540133EA5C32
:105A60008A43EA54EA5C8243EA54237800209B4646
:105A700000F0A0FC602223791A40602A00D1EFE0F8
:105A8000402A00D1F5E0DB06DB0E012B00D113E14B
:105A9000022B00D1C7E0002B00D0E1E0202A00D18A
:105AA0001CE2002A00D0DBE06379092B00D9D7E0A3
:105AB0007E4A9B00D3589F46774D2B78DB0700D456
:105AC00062E7FFF7BBFE5FE7019BDB78DB0700D4F3
:105AD0005AE76068FFF7A6FE56E76F4D2B78DB07A5
